{
  "contractName": "multiSigWallet",
  "abi": [
    {
      "inputs": [
        {
          "internalType": "uint256",
          "name": "_consensusType",
          "type": "uint256"
        }
      ],
      "stateMutability": "nonpayable",
      "type": "constructor"
    },
    {
      "anonymous": false,
      "inputs": [
        {
          "indexed": false,
          "internalType": "address",
          "name": "owner",
          "type": "address"
        }
      ],
      "name": "NewOwner",
      "type": "event"
    },
    {
      "anonymous": false,
      "inputs": [
        {
          "indexed": false,
          "internalType": "address",
          "name": "src",
          "type": "address"
        },
        {
          "indexed": false,
          "internalType": "uint256",
          "name": "amount",
          "type": "uint256"
        }
      ],
      "name": "Received",
      "type": "event"
    },
    {
      "anonymous": false,
      "inputs": [
        {
          "indexed": false,
          "internalType": "address",
          "name": "dst",
          "type": "address"
        },
        {
          "indexed": false,
          "internalType": "uint256",
          "name": "amount",
          "type": "uint256"
        }
      ],
      "name": "Sent",
      "type": "event"
    },
    {
      "anonymous": false,
      "inputs": [
        {
          "indexed": false,
          "internalType": "address",
          "name": "dst",
          "type": "address"
        },
        {
          "indexed": false,
          "internalType": "uint256",
          "name": "amount",
          "type": "uint256"
        }
      ],
      "name": "Signed",
      "type": "event"
    },
    {
      "inputs": [
        {
          "internalType": "address",
          "name": "_owner",
          "type": "address"
        }
      ],
      "name": "addOwner",
      "outputs": [],
      "stateMutability": "nonpayable",
      "type": "function"
    },
    {
      "inputs": [
        {
          "internalType": "address payable",
          "name": "dst",
          "type": "address"
        },
        {
          "internalType": "uint256",
          "name": "amt",
          "type": "uint256"
        }
      ],
      "name": "send",
      "outputs": [],
      "stateMutability": "payable",
      "type": "function"
    },
    {
      "inputs": [
        {
          "internalType": "uint256",
          "name": "_type",
          "type": "uint256"
        }
      ],
      "name": "changeConsensusType",
      "outputs": [],
      "stateMutability": "nonpayable",
      "type": "function"
    },
    {
      "inputs": [
        {
          "internalType": "address",
          "name": "dst",
          "type": "address"
        },
        {
          "internalType": "uint256",
          "name": "amt",
          "type": "uint256"
        },
        {
          "internalType": "bytes",
          "name": "signature",
          "type": "bytes"
        }
      ],
      "name": "signSendEthers",
      "outputs": [],
      "stateMutability": "nonpayable",
      "type": "function"
    },
    {
      "inputs": [],
      "name": "recieve",
      "outputs": [],
      "stateMutability": "payable",
      "type": "function"
    },
    {
      "inputs": [],
      "name": "getBalance",
      "outputs": [
        {
          "internalType": "uint256",
          "name": "",
          "type": "uint256"
        }
      ],
      "stateMutability": "view",
      "type": "function"
    },
    {
      "inputs": [],
      "name": "destroy",
      "outputs": [],
      "stateMutability": "nonpayable",
      "type": "function"
    },
    {
      "inputs": [
        {
          "internalType": "bytes32",
          "name": "hash",
          "type": "bytes32"
        }
      ],
      "name": "clearSigns",
      "outputs": [],
      "stateMutability": "nonpayable",
      "type": "function"
    },
    {
      "inputs": [
        {
          "internalType": "address",
          "name": "_owner",
          "type": "address"
        }
      ],
      "name": "isOwner",
      "outputs": [
        {
          "internalType": "bool",
          "name": "",
          "type": "bool"
        }
      ],
      "stateMutability": "view",
      "type": "function"
    },
    {
      "inputs": [],
      "name": "getConsensus",
      "outputs": [
        {
          "internalType": "uint256",
          "name": "",
          "type": "uint256"
        }
      ],
      "stateMutability": "view",
      "type": "function"
    },
    {
      "inputs": [
        {
          "internalType": "address",
          "name": "_owner",
          "type": "address"
        },
        {
          "internalType": "address",
          "name": "dst",
          "type": "address"
        },
        {
          "internalType": "uint256",
          "name": "amt",
          "type": "uint256"
        }
      ],
      "name": "isapprovedByOwner",
      "outputs": [
        {
          "internalType": "bool",
          "name": "",
          "type": "bool"
        }
      ],
      "stateMutability": "view",
      "type": "function"
    },
    {
      "inputs": [],
      "name": "sendBack",
      "outputs": [],
      "stateMutability": "nonpayable",
      "type": "function"
    }
  ],
  "bytecode": "0x6080604052600160005534801561001557600080fd5b50604051611a7f380380611a7f8339818101604052602081101561003857600080fd5b81019080805190602001909291905050508060011115801561005b575060038111155b61006457600080fd5b6001339080600181540180825580915050600190039060005260206000200160009091909190916101000a81548173ffffffffffffffffffffffffffffffffffffffff021916908373ffffffffffffffffffffffffffffffffffffffff16021790555080600081905550506119a1806100de6000396000f3fe6080604052600436106100a75760003560e01c806383197ef01161006457806383197ef014610232578063a9e10bf214610249578063bdca95a614610253578063d0679d34146102e6578063d1e1504514610334578063eaa8cc691461034b576100a7565b806312065fe0146100ac578063179e740b146100d75780631cc28634146101025780632f54bf6e1461013d5780636fe71229146101a65780637065cb48146101e1575b600080fd5b3480156100b857600080fd5b506100c161043d565b6040518082815260200191505060405180910390f35b3480156100e357600080fd5b506100ec610445565b6040518082815260200191505060405180910390f35b34801561010e57600080fd5b5061013b6004803603602081101561012557600080fd5b810190808035906020019092919050505061044e565b005b34801561014957600080fd5b5061018c6004803603602081101561016057600080fd5b81019080803573ffffffffffffffffffffffffffffffffffffffff16906020019092919050505061057d565b604051808215151515815260200191505060405180910390f35b3480156101b257600080fd5b506101df600480360360208110156101c957600080fd5b810190808035906020019092919050505061061f565b005b3480156101ed57600080fd5b506102306004803603602081101561020457600080fd5b81019080803573ffffffffffffffffffffffffffffffffffffffff1690602001909291905050506106e3565b005b34801561023e57600080fd5b506102476109c4565b005b610251610ae6565b005b34801561025f57600080fd5b506102cc6004803603606081101561027657600080fd5b81019080803573ffffffffffffffffffffffffffffffffffffffff169060200190929190803573ffffffffffffffffffffffffffffffffffffffff16906020019092919080359060200190929190505050610b53565b604051808215151515815260200191505060405180910390f35b610332600480360360408110156102fc57600080fd5b81019080803573ffffffffffffffffffffffffffffffffffffffff16906020019092919080359060200190929190505050610d28565b005b34801561034057600080fd5b506103496110ea565b005b34801561035757600080fd5b5061043b6004803603606081101561036e57600080fd5b81019080803573ffffffffffffffffffffffffffffffffffffffff16906020019092919080359060200190929190803590602001906401000000008111156103b557600080fd5b8201836020820111156103c757600080fd5b803590602001918460018302840111640100000000831117156103e957600080fd5b91908080601f016020809104026020016040519081016040528093929190818152602001838380828437600081840152601f19601f820116905080830192505050505050509192919290505050611133565b005b600047905090565b60008054905090565b600080600090505b6001805490508110156104e3573373ffffffffffffffffffffffffffffffffffffffff166001828154811061048757fe5b9060005260206000200160009054906101000a900473ffffffffffffffffffffffffffffffffffffffff1673ffffffffffffffffffffffffffffffffffffffff1614915081156104d6576104e3565b8080600101915050610456565b5080610557576040517f08c379a00000000000000000000000000000000000000000000000000000000081526004018080602001828103825260108152602001807f4572726f723a206e6f74206f776e65720000000000000000000000000000000081525060200191505060405180910390fd5b81600111158015610569575060038211155b61057257600080fd5b816000819055505050565b600080600090505b600180549050811015610614578273ffffffffffffffffffffffffffffffffffffffff16600182815481106105b657fe5b9060005260206000200160009054906101000a900473ffffffffffffffffffffffffffffffffffffffff1673ffffffffffffffffffffffffffffffffffffffff16141561060757600191505061061a565b8080600101915050610585565b50600090505b919050565b60008090505b6001805490508110156106df576000600260006001848154811061064557fe5b9060005260206000200160009054906101000a900473ffffffffffffffffffffffffffffffffffffffff1673ffffffffffffffffffffffffffffffffffffffff1673ffffffffffffffffffffffffffffffffffffffff168152602001908152602001600020600084815260200190815260200160002060006101000a81548160ff0219169083151502179055508080600101915050610625565b5050565b600080600090505b600180549050811015610778573373ffffffffffffffffffffffffffffffffffffffff166001828154811061071c57fe5b9060005260206000200160009054906101000a900473ffffffffffffffffffffffffffffffffffffffff1673ffffffffffffffffffffffffffffffffffffffff16149150811561076b57610778565b80806001019150506106eb565b50806107ec576040517f08c379a00000000000000000000000000000000000000000000000000000000081526004018080602001828103825260108152602001807f4572726f723a206e6f74206f776e65720000000000000000000000000000000081525060200191505060405180910390fd5b8160008090505b6001805490508110156108e6578173ffffffffffffffffffffffffffffffffffffffff166001828154811061082457fe5b9060005260206000200160009054906101000a900473ffffffffffffffffffffffffffffffffffffffff1673ffffffffffffffffffffffffffffffffffffffff1614156108d9576040517f08c379a000000000000000000000000000000000000000000000000000000000815260040180806020018281038252601b8152602001807f4572726f723a204f776e657220616c726561647920657869737473000000000081525060200191505060405180910390fd5b80806001019150506107f3565b506003600180549050106108f957600080fd5b6001839080600181540180825580915050600190039060005260206000200160009091909190916101000a81548173ffffffffffffffffffffffffffffffffffffffff021916908373ffffffffffffffffffffffffffffffffffffffff1602179055507f3edd90e7770f06fafde38004653b33870066c33bfc923ff6102acd601f85dfbc83604051808273ffffffffffffffffffffffffffffffffffffffff1673ffffffffffffffffffffffffffffffffffffffff16815260200191505060405180910390a1505050565b600080600090505b600180549050811015610a59573373ffffffffffffffffffffffffffffffffffffffff16600182815481106109fd57fe5b9060005260206000200160009054906101000a900473ffffffffffffffffffffffffffffffffffffffff1673ffffffffffffffffffffffffffffffffffffffff161491508115610a4c57610a59565b80806001019150506109cc565b5080610acd576040517f08c379a00000000000000000000000000000000000000000000000000000000081526004018080602001828103825260108152602001807f4572726f723a206e6f74206f776e65720000000000000000000000000000000081525060200191505060405180910390fd5b3373ffffffffffffffffffffffffffffffffffffffff16ff5b7f88a5966d370b9919b20f3e2c13ff65706f196a4e32cc2c12bf57088f885258743334604051808373ffffffffffffffffffffffffffffffffffffffff1673ffffffffffffffffffffffffffffffffffffffff1681526020018281526020019250505060405180910390a1565b60008060008090505b600180549050811015610be9578573ffffffffffffffffffffffffffffffffffffffff1660018281548110610b8d57fe5b9060005260206000200160009054906101000a900473ffffffffffffffffffffffffffffffffffffffff1673ffffffffffffffffffffffffffffffffffffffff161491508115610bdc57610be9565b8080600101915050610b5c565b5080610c5d576040517f08c379a00000000000000000000000000000000000000000000000000000000081526004018080602001828103825260108152602001807f4572726f723a206e6f74206f776e65720000000000000000000000000000000081525060200191505060405180910390fd5b60008484604051602001808373ffffffffffffffffffffffffffffffffffffffff1673ffffffffffffffffffffffffffffffffffffffff1660601b815260140182815260200192505050604051602081830303815290604052805190602001209050600260008773ffffffffffffffffffffffffffffffffffffffff1673ffffffffffffffffffffffffffffffffffffffff168152602001908152602001600020600082815260200190815260200160002060009054906101000a900460ff16925050509392505050565b600080600090505b600180549050811015610dbd573373ffffffffffffffffffffffffffffffffffffffff1660018281548110610d6157fe5b9060005260206000200160009054906101000a900473ffffffffffffffffffffffffffffffffffffffff1673ffffffffffffffffffffffffffffffffffffffff161491508115610db057610dbd565b8080600101915050610d30565b5080610e31576040517f08c379a00000000000000000000000000000000000000000000000000000000081526004018080602001828103825260108152602001807f4572726f723a206e6f74206f776e65720000000000000000000000000000000081525060200191505060405180910390fd5b82600073ffffffffffffffffffffffffffffffffffffffff168173ffffffffffffffffffffffffffffffffffffffff161415610ed5576040517f08c379a00000000000000000000000000000000000000000000000000000000081526004018080602001828103825260138152602001807f4572726f723a204e756c6c20616464726573730000000000000000000000000081525060200191505060405180910390fd5b47831115610f4b576040517f08c379a00000000000000000000000000000000000000000000000000000000081526004018080602001828103825260198152602001807f4572726f723a206e6f7420656e6f7567682062616c616e63650000000000000081525060200191505060405180910390fd5b60008484604051602001808373ffffffffffffffffffffffffffffffffffffffff1673ffffffffffffffffffffffffffffffffffffffff1660601b815260140182815260200192505050604051602081830303815290604052805190602001209050610fb681611511565b611028576040517f08c379a000000000000000000000000000000000000000000000000000000000815260040180806020018281038252601f8152602001807f4572726f723a205472616e73636174696f6e206e6f7420617070726f7665640081525060200191505060405180910390fd5b8473ffffffffffffffffffffffffffffffffffffffff166108fc859081150290604051600060405180830381858888f1935050505015801561106e573d6000803e3d6000fd5b506110788161061f565b7f510ffb4dcab972ae9d2007a58e13f1b0881776d23cd8f5cc32f8c5be2dbf70d28585604051808373ffffffffffffffffffffffffffffffffffffffff1673ffffffffffffffffffffffffffffffffffffffff1681526020018281526020019250505060405180910390a15050505050565b3373ffffffffffffffffffffffffffffffffffffffff166108fc479081150290604051600060405180830381858888f19350505050158015611130573d6000803e3d6000fd5b50565b600080600090505b6001805490508110156111c8573373ffffffffffffffffffffffffffffffffffffffff166001828154811061116c57fe5b9060005260206000200160009054906101000a900473ffffffffffffffffffffffffffffffffffffffff1673ffffffffffffffffffffffffffffffffffffffff1614915081156111bb576111c8565b808060010191505061113b565b508061123c576040517f08c379a00000000000000000000000000000000000000000000000000000000081526004018080602001828103825260108152602001807f4572726f723a206e6f74206f776e65720000000000000000000000000000000081525060200191505060405180910390fd5b83600073ffffffffffffffffffffffffffffffffffffffff168173ffffffffffffffffffffffffffffffffffffffff1614156112e0576040517f08c379a00000000000000000000000000000000000000000000000000000000081526004018080602001828103825260138152602001807f4572726f723a204e756c6c20616464726573730000000000000000000000000081525060200191505060405180910390fd5b47841115611356576040517f08c379a00000000000000000000000000000000000000000000000000000000081526004018080602001828103825260198152602001807f4572726f723a206e6f7420656e6f7567682062616c616e63650000000000000081525060200191505060405180910390fd5b60008585604051602001808373ffffffffffffffffffffffffffffffffffffffff1673ffffffffffffffffffffffffffffffffffffffff1660601b8152601401828152602001925050506040516020818303038152906040528051906020012090506113c333828661156c565b611435576040517f08c379a00000000000000000000000000000000000000000000000000000000081526004018080602001828103825260188152602001807f4572726f723a20496e76616c6964205369676e6174757265000000000000000081525060200191505060405180910390fd5b6001600260003373ffffffffffffffffffffffffffffffffffffffff1673ffffffffffffffffffffffffffffffffffffffff168152602001908152602001600020600083815260200190815260200160002060006101000a81548160ff0219169083151502179055507ff4b7ab5b8fc49d6d35d323cae6a96e1441b461f862dfc5aff92e806e2839b5b08686604051808373ffffffffffffffffffffffffffffffffffffffff1673ffffffffffffffffffffffffffffffffffffffff1681526020018281526020019250505060405180910390a1505050505050565b6000806001600054141561152f57611528836115af565b9050611563565b6002600054141561154a5761154383611680565b9050611562565b600360005414156115615761155e836117a7565b90505b5b5b80915050919050565b60008373ffffffffffffffffffffffffffffffffffffffff1661158f8484611879565b73ffffffffffffffffffffffffffffffffffffffff161490509392505050565b600080600090505b6001805490508110156116755760026000600183815481106115d557fe5b9060005260206000200160009054906101000a900473ffffffffffffffffffffffffffffffffffffffff1673ffffffffffffffffffffffffffffffffffffffff1673ffffffffffffffffffffffffffffffffffffffff168152602001908152602001600020600084815260200190815260200160002060009054906101000a900460ff161561166857600191505061167b565b80806001019150506115b7565b50600090505b919050565b60008060009050600060026001805490508161169857fe5b04905060006002600180549050816116ac57fe5b06146116b9576001810190505b60006001905060008090505b6001805490508110156117995760026000600183815481106116e357fe5b9060005260206000200160009054906101000a900473ffffffffffffffffffffffffffffffffffffffff1673ffffffffffffffffffffffffffffffffffffffff1673ffffffffffffffffffffffffffffffffffffffff168152602001908152602001600020600087815260200190815260200160002060009054906101000a900460ff16915081156117785783806001019450505b82841061178c5760019450505050506117a2565b80806001019150506116c5565b50600093505050505b919050565b6000806001905060008090505b60018054905081101561186f5760026000600183815481106117d257fe5b9060005260206000200160009054906101000a900473ffffffffffffffffffffffffffffffffffffffff1673ffffffffffffffffffffffffffffffffffffffff1673ffffffffffffffffffffffffffffffffffffffff168152602001908152602001600020600085815260200190815260200160002060009054906101000a900460ff169150816118625761186f565b80806001019150506117b4565b5080915050919050565b6000808360405160200180807f19457468657265756d205369676e6564204d6573736167653a0a333200000000815250601c01828152602001915050604051602081830303815290604052805190602001209050600080600060418651146118e057600080fd5b6020860151925060408601519150606086015160001a905060018482858560405160008152602001604052604051808581526020018460ff1660ff1681526020018381526020018281526020019450505050506020604051602081039080840390855afa158015611955573d6000803e3d6000fd5b505050602060405103519450505050509291505056fea2646970667358221220d07c06af08f4032c0a923d8d6a7e46a8f3c5fcb95afdaf6a8ecd6755eb69d72164736f6c63430006020033",
  "source": "pragma solidity ^0.6.2;\r\n\r\ncontract multiSigWallet{\r\n // Types of consensus: 1. Atleast one  2. Majority  3. All  \r\n  uint constant maxOwners = 3;\r\n\r\n  uint consensusType= 1;  \r\n  \r\n  address[] owners;\r\n  mapping(address=> mapping (bytes32 => bool)) approvals;\r\n  event Received(address src, uint amount);\r\n  event Sent(address dst, uint amount);\r\n  event Signed(address dst, uint amount);\r\n  event NewOwner(address owner);\r\n  \r\n  constructor(uint _consensusType) public {\r\n    require(1<= _consensusType && _consensusType <=3);\r\n    owners.push(msg.sender);\r\n    consensusType = _consensusType;\r\n  }\r\n  \r\n\r\n function addOwner(address _owner) public _isOwner _noDuplicate(_owner){\r\n  require(owners.length < maxOwners);\r\n  owners.push(_owner);\r\n  emit NewOwner(_owner);\r\n }\r\n \r\n function send(address payable dst, uint amt) public payable  _isOwner _isValidAddress(dst){\r\n      require(amt <= address(this).balance,\"Error: not enough balance\");\r\n      bytes32 hash =  keccak256(abi.encodePacked(dst, amt));\r\n      require(isapproved(hash),\"Error: Transcation not approved\");\r\n      dst.transfer(amt);\r\n      clearSigns(hash);\r\n      emit Sent(dst,amt);\r\n  }\r\n \r\n function changeConsensusType(uint _type) public _isOwner{\r\n  require(1<= _type && _type <=3 );\r\n  consensusType= _type;\r\n }\r\n \r\n function signSendEthers(address dst, uint amt, bytes memory signature) public  _isOwner _isValidAddress(dst) {\r\n   require(amt <= address(this).balance,\"Error: not enough balance\");\r\n   bytes32 hash =  keccak256(abi.encodePacked(dst, amt));\r\n   require(verifySign(msg.sender,hash,signature), \"Error: Invalid Signature\");\r\n   approvals[msg.sender][hash]=true;\r\n   emit Signed(dst,amt);\r\n }\r\n \r\n function recieve() external payable {\r\n    emit Received(msg.sender, msg.value);\r\n  }\r\n  \r\n  function getBalance() external view returns (uint) {\r\n   return address(this).balance;\r\n  }\r\n  \r\n  function destroy() public _isOwner{\r\n   selfdestruct(msg.sender);\r\n  }\r\n  \r\n   \r\n function recoverSigner(bytes32 hash,bytes memory signature) internal pure returns (address)\r\n  {\r\n    bytes32 signMsg = keccak256(abi.encodePacked(\"\\x19Ethereum Signed Message:\\n32\", hash));\r\n    bytes32 r;\r\n    bytes32 s;\r\n    uint8 v;\r\n    require(signature.length == 65);\r\n     assembly {\r\n      r := mload(add(signature, 0x20))\r\n      s := mload(add(signature, 0x40))\r\n      v := byte(0, mload(add(signature, 0x60)))\r\n    }  \r\n    \r\n    return ecrecover(signMsg, v, r, s);\r\n  }\r\n  \r\n  function verifySign(address signee, bytes32 hash, bytes memory signature ) internal pure returns (bool){\r\n        return (recoverSigner(hash,signature) == signee);\r\n  }\r\n  \r\n \r\n    \r\n function consensus1(bytes32 hash) internal view returns(bool){\r\n  for(uint i=0; i< owners.length; i++){\r\n   if(approvals[owners[i]][hash]) \r\n   return true;\r\n  }\r\n \r\n  return false; \r\n  }\r\n  \r\n    \r\n function consensus2(bytes32 hash) internal view returns(bool){\r\n  uint counter = 0;\r\n  uint midWay= (owners.length /2);\r\n  if (!(owners.length %2 == 0 ))\r\n    midWay+=1;\r\n  bool approved= true;\r\n  for(uint i=0; i< owners.length; i++){\r\n    approved=  approvals[owners[i]][hash];\r\n    if(approved)\r\n    {\r\n      counter++;\r\n    }\r\n    if(counter >= midWay){\r\n       return true;\r\n    }\r\n     \r\n  }\r\n\r\n  return false; \r\n  }\r\n  \r\n  \r\n   function consensus3(bytes32 hash) internal view returns(bool){\r\n   bool approved = true;\r\n    for(uint i=0; i< owners.length; i++){\r\n     approved= approvals[owners[i]][hash];\r\n    if(!approved){\r\n      break;\r\n    }\r\n  }\r\n     return approved;\r\n  }\r\n  \r\n  \r\n  \r\n  function clearSigns(bytes32 hash) public {\r\n    for(uint i=0; i< owners.length; i++){\r\n    approvals[owners[i]][hash]= false;\r\n  }\r\n  }\r\n  \r\n  \r\n  function isOwner(address _owner) external view returns (bool) {\r\n    for(uint i=0;i< owners.length;i++){\r\n    if (owners[i] == _owner)\r\n     return true;\r\n  }\r\n    return false;  \r\n  }\r\n\r\n  function getConsensus() external view returns (uint) {\r\n    return consensusType;\r\n  }\r\n  \r\n  function isapproved(bytes32 hash) internal view returns (bool) {\r\n  bool appr;\r\n  if (consensusType == 1)\r\n    appr= consensus1(hash);\r\n  else if (consensusType == 2)\r\n    appr = consensus2(hash);\r\n  else if (consensusType == 3)\r\n    appr = consensus3(hash);\r\n    return appr;\r\n  }\r\n  \r\n  function isapprovedByOwner(address _owner,address dst, uint amt ) external view returns (bool){\r\n  bool appr;\r\n    for(uint i=0;i< owners.length;i++){\r\n     appr = (owners[i] == _owner);\r\n     if(appr)\r\n      break;\r\n  }\r\n    require(appr,\"Error: not owner\");\r\n    bytes32 hash =keccak256(abi.encodePacked(dst, amt));\r\n    return approvals[_owner][hash];\r\n  }\r\n  \r\n\r\n  modifier _isOwner{\r\n  bool appr;\r\n  for(uint i=0;i< owners.length;i++){\r\n    appr = (owners[i] == msg.sender);\r\n    if(appr)\r\n    break;\r\n  }\r\n  require(appr,\"Error: not owner\");\r\n   _;\r\n  }\r\n  \r\n  modifier _isValidAddress(address _dst){\r\n    require(_dst != address(0),\"Error: Null address\");\r\n    _;\r\n  }\r\n  modifier _noDuplicate(address _owner){\r\n  for(uint i=0;i< owners.length;i++){\r\n   require(!(owners[i] == _owner),\"Error: Owner already exists\");\r\n  }\r\n   _;\r\n  }\r\n  \r\n  function sendBack() public {\r\n    msg.sender.transfer(address(this).balance);\r\n  }\r\n  \r\n}",
  "sourcePath": "C:\\Users\\Pratik\\Documents\\GitHub\\AdvancedSmartContract\\contracts\\multiSigWallet.sol",
  "compiler": {
    "name": "solc",
    "version": "0.6.2+commit.bacdbe57.Emscripten.clang"
  },
  "schemaVersion": "3.0.23",
  "updatedAt": "2020-03-29T06:44:17.402Z",
  "devdoc": {
    "methods": {}
  },
  "userdoc": {
    "methods": {}
  }
}