{
  "contractName": "multiSigWallet",
  "abi": [
    {
      "inputs": [
        {
          "internalType": "uint256",
          "name": "_consensusType",
          "type": "uint256"
        }
      ],
      "stateMutability": "nonpayable",
      "type": "constructor"
    },
    {
      "anonymous": false,
      "inputs": [
        {
          "indexed": false,
          "internalType": "address",
          "name": "owner",
          "type": "address"
        }
      ],
      "name": "NewOwner",
      "type": "event"
    },
    {
      "anonymous": false,
      "inputs": [
        {
          "indexed": false,
          "internalType": "address",
          "name": "src",
          "type": "address"
        },
        {
          "indexed": false,
          "internalType": "uint256",
          "name": "amount",
          "type": "uint256"
        }
      ],
      "name": "Received",
      "type": "event"
    },
    {
      "anonymous": false,
      "inputs": [
        {
          "indexed": false,
          "internalType": "address",
          "name": "dst",
          "type": "address"
        },
        {
          "indexed": false,
          "internalType": "uint256",
          "name": "amount",
          "type": "uint256"
        }
      ],
      "name": "Sent",
      "type": "event"
    },
    {
      "inputs": [
        {
          "internalType": "address",
          "name": "_owner",
          "type": "address"
        }
      ],
      "name": "addOwner",
      "outputs": [],
      "stateMutability": "nonpayable",
      "type": "function"
    },
    {
      "inputs": [
        {
          "internalType": "uint256",
          "name": "amount",
          "type": "uint256"
        },
        {
          "internalType": "address payable",
          "name": "dst",
          "type": "address"
        }
      ],
      "name": "send",
      "outputs": [],
      "stateMutability": "payable",
      "type": "function"
    },
    {
      "inputs": [
        {
          "internalType": "uint256",
          "name": "_type",
          "type": "uint256"
        }
      ],
      "name": "changeConsensusType",
      "outputs": [],
      "stateMutability": "nonpayable",
      "type": "function"
    },
    {
      "inputs": [
        {
          "internalType": "uint256",
          "name": "amt",
          "type": "uint256"
        },
        {
          "internalType": "address",
          "name": "dst",
          "type": "address"
        }
      ],
      "name": "signSendEthers",
      "outputs": [],
      "stateMutability": "payable",
      "type": "function"
    },
    {
      "inputs": [],
      "name": "recieve",
      "outputs": [],
      "stateMutability": "payable",
      "type": "function"
    },
    {
      "inputs": [],
      "name": "getBalance",
      "outputs": [
        {
          "internalType": "uint256",
          "name": "",
          "type": "uint256"
        }
      ],
      "stateMutability": "view",
      "type": "function"
    },
    {
      "inputs": [],
      "name": "clearSigns",
      "outputs": [],
      "stateMutability": "nonpayable",
      "type": "function"
    },
    {
      "inputs": [
        {
          "internalType": "address",
          "name": "_owner",
          "type": "address"
        }
      ],
      "name": "isOwner",
      "outputs": [
        {
          "internalType": "bool",
          "name": "",
          "type": "bool"
        }
      ],
      "stateMutability": "view",
      "type": "function"
    }
  ],
  "bytecode": "0x6080604052600160005534801561001557600080fd5b506040516117833803806117838339818101604052602081101561003857600080fd5b81019080805190602001909291905050508060011115801561005b575060038111155b61006457600080fd5b6001339080600181540180825580915050600190039060005260206000200160009091909190916101000a81548173ffffffffffffffffffffffffffffffffffffffff021916908373ffffffffffffffffffffffffffffffffffffffff16021790555080600081905550506116a5806100de6000396000f3fe60806040526004361061007b5760003560e01c8063785d04f51161004e578063785d04f5146101a0578063a9e10bf2146101ee578063c4cfae39146101f8578063d75e66181461020f5761007b565b806312065fe0146100805780631cc28634146100ab5780632f54bf6e146100e65780637065cb481461014f575b600080fd5b34801561008c57600080fd5b5061009561025d565b6040518082815260200191505060405180910390f35b3480156100b757600080fd5b506100e4600480360360208110156100ce57600080fd5b8101908080359060200190929190505050610265565b005b3480156100f257600080fd5b506101356004803603602081101561010957600080fd5b81019080803573ffffffffffffffffffffffffffffffffffffffff169060200190929190505050610394565b604051808215151515815260200191505060405180910390f35b34801561015b57600080fd5b5061019e6004803603602081101561017257600080fd5b81019080803573ffffffffffffffffffffffffffffffffffffffff169060200190929190505050610436565b005b6101ec600480360360408110156101b657600080fd5b8101908080359060200190929190803573ffffffffffffffffffffffffffffffffffffffff169060200190929190505050610728565b005b6101f6610b37565b005b34801561020457600080fd5b5061020d610ba4565b005b61025b6004803603604081101561022557600080fd5b8101908080359060200190929190803573ffffffffffffffffffffffffffffffffffffffff169060200190929190505050610c61565b005b600047905090565b600080600090505b6001805490508110156102fa573373ffffffffffffffffffffffffffffffffffffffff166001828154811061029e57fe5b9060005260206000200160009054906101000a900473ffffffffffffffffffffffffffffffffffffffff1673ffffffffffffffffffffffffffffffffffffffff1614915081156102ed576102fa565b808060010191505061026d565b508061036e576040517f08c379a00000000000000000000000000000000000000000000000000000000081526004018080602001828103825260108152602001807f4572726f723a206e6f74206f776e65720000000000000000000000000000000081525060200191505060405180910390fd5b81600111158015610380575060038211155b61038957600080fd5b816000819055505050565b600080600090505b60018054905081101561042b578273ffffffffffffffffffffffffffffffffffffffff16600182815481106103cd57fe5b9060005260206000200160009054906101000a900473ffffffffffffffffffffffffffffffffffffffff1673ffffffffffffffffffffffffffffffffffffffff16141561041e576001915050610431565b808060010191505061039c565b50600090505b919050565b600080600090505b6001805490508110156104cb573373ffffffffffffffffffffffffffffffffffffffff166001828154811061046f57fe5b9060005260206000200160009054906101000a900473ffffffffffffffffffffffffffffffffffffffff1673ffffffffffffffffffffffffffffffffffffffff1614915081156104be576104cb565b808060010191505061043e565b508061053f576040517f08c379a00000000000000000000000000000000000000000000000000000000081526004018080602001828103825260108152602001807f4572726f723a206e6f74206f776e65720000000000000000000000000000000081525060200191505060405180910390fd5b81600080600090505b6001805490508110156105d6578273ffffffffffffffffffffffffffffffffffffffff166001828154811061057957fe5b9060005260206000200160009054906101000a900473ffffffffffffffffffffffffffffffffffffffff1673ffffffffffffffffffffffffffffffffffffffff161415915081156105c9576105d6565b8080600101915050610548565b508061064a576040517f08c379a00000000000000000000000000000000000000000000000000000000081526004018080602001828103825260108152602001807f4572726f723a206e6f74206f776e65720000000000000000000000000000000081525060200191505060405180910390fd5b60036001805490501061065c57600080fd5b6001849080600181540180825580915050600190039060005260206000200160009091909190916101000a81548173ffffffffffffffffffffffffffffffffffffffff021916908373ffffffffffffffffffffffffffffffffffffffff1602179055507f3edd90e7770f06fafde38004653b33870066c33bfc923ff6102acd601f85dfbc84604051808273ffffffffffffffffffffffffffffffffffffffff1673ffffffffffffffffffffffffffffffffffffffff16815260200191505060405180910390a150505050565b818160008183604051602001808373ffffffffffffffffffffffffffffffffffffffff1673ffffffffffffffffffffffffffffffffffffffff1660601b8152601401828152602001925050506040516020818303038152906040528051906020012090506000600160005414156107a9576107a282610f29565b90506107dd565b600260005414156107c4576107bd82611101565b90506107dc565b600360005414156107db576107d8826112f2565b90505b5b5b80610850576040517f08c379a000000000000000000000000000000000000000000000000000000000815260040180806020018281038252601f8152602001807f4572726f723a205472616e73636174696f6e206e6f7420617070726f7665640081525060200191505060405180910390fd5b600080600090505b6001805490508110156108e5573373ffffffffffffffffffffffffffffffffffffffff166001828154811061088957fe5b9060005260206000200160009054906101000a900473ffffffffffffffffffffffffffffffffffffffff1673ffffffffffffffffffffffffffffffffffffffff1614915081156108d8576108e5565b8080600101915050610858565b5080610959576040517f08c379a00000000000000000000000000000000000000000000000000000000081526004018080602001828103825260108152602001807f4572726f723a206e6f74206f776e65720000000000000000000000000000000081525060200191505060405180910390fd5b85600073ffffffffffffffffffffffffffffffffffffffff168173ffffffffffffffffffffffffffffffffffffffff1614156109fd576040517f08c379a00000000000000000000000000000000000000000000000000000000081526004018080602001828103825260138152602001807f4572726f723a204e756c6c20616464726573730000000000000000000000000081525060200191505060405180910390fd5b47881115610a73576040517f08c379a00000000000000000000000000000000000000000000000000000000081526004018080602001828103825260198152602001807f4572726f723a206e6f7420656e6f7567682062616c616e63650000000000000081525060200191505060405180910390fd5b8673ffffffffffffffffffffffffffffffffffffffff166108fc899081150290604051600060405180830381858888f19350505050158015610ab9573d6000803e3d6000fd5b50610ac2610ba4565b7f510ffb4dcab972ae9d2007a58e13f1b0881776d23cd8f5cc32f8c5be2dbf70d28789604051808373ffffffffffffffffffffffffffffffffffffffff1673ffffffffffffffffffffffffffffffffffffffff1681526020018281526020019250505060405180910390a15050505050505050565b7f88a5966d370b9919b20f3e2c13ff65706f196a4e32cc2c12bf57088f885258743334604051808373ffffffffffffffffffffffffffffffffffffffff1673ffffffffffffffffffffffffffffffffffffffff1681526020018281526020019250505060405180910390a1565b60008090505b600180549050811015610c5e57604051806020016040528060008152506002600060018481548110610bd857fe5b9060005260206000200160009054906101000a900473ffffffffffffffffffffffffffffffffffffffff1673ffffffffffffffffffffffffffffffffffffffff1673ffffffffffffffffffffffffffffffffffffffff1681526020019081526020016000209080519060200190610c5092919061154a565b508080600101915050610baa565b50565b600080600090505b600180549050811015610cf6573373ffffffffffffffffffffffffffffffffffffffff1660018281548110610c9a57fe5b9060005260206000200160009054906101000a900473ffffffffffffffffffffffffffffffffffffffff1673ffffffffffffffffffffffffffffffffffffffff161491508115610ce957610cf6565b8080600101915050610c69565b5080610d6a576040517f08c379a00000000000000000000000000000000000000000000000000000000081526004018080602001828103825260108152602001807f4572726f723a206e6f74206f776e65720000000000000000000000000000000081525060200191505060405180910390fd5b81600073ffffffffffffffffffffffffffffffffffffffff168173ffffffffffffffffffffffffffffffffffffffff161415610e0e576040517f08c379a00000000000000000000000000000000000000000000000000000000081526004018080602001828103825260138152602001807f4572726f723a204e756c6c20616464726573730000000000000000000000000081525060200191505060405180910390fd5b8284604051602401808373ffffffffffffffffffffffffffffffffffffffff1673ffffffffffffffffffffffffffffffffffffffff168152602001828152602001925050506040516020818303038152906040527fc34dd323000000000000000000000000000000000000000000000000000000007bffffffffffffffffffffffffffffffffffffffffffffffffffffffff19166020820180517bffffffffffffffffffffffffffffffffffffffffffffffffffffffff8381831617835250505050600260003373ffffffffffffffffffffffffffffffffffffffff1673ffffffffffffffffffffffffffffffffffffffff1681526020019081526020016000209080519060200190610f229291906115ca565b5050505050565b60008060009050600080600090505b6001805490508110156110f45760018181548110610f5257fe5b9060005260206000200160009054906101000a900473ffffffffffffffffffffffffffffffffffffffff1673ffffffffffffffffffffffffffffffffffffffff166110ab866002600060018681548110610fa857fe5b9060005260206000200160009054906101000a900473ffffffffffffffffffffffffffffffffffffffff1673ffffffffffffffffffffffffffffffffffffffff1673ffffffffffffffffffffffffffffffffffffffff1681526020019081526020016000208054600181600116156101000203166002900480601f0160208091040260200160405190810160405280929190818152602001828054600181600116156101000203166002900480156110a15780601f10611076576101008083540402835291602001916110a1565b820191906000526020600020905b81548152906001019060200180831161108457829003601f168201915b50505050506114ac565b73ffffffffffffffffffffffffffffffffffffffff1614915081156110d35782806001019350505b600183106110e757600193505050506110fc565b8080600101915050610f38565b506000925050505b919050565b60008060009050600060026001805490508161111957fe5b04905060006001905060008090505b6001805490508110156112e4576001818154811061114257fe5b9060005260206000200160009054906101000a900473ffffffffffffffffffffffffffffffffffffffff1673ffffffffffffffffffffffffffffffffffffffff1661129b87600260006001868154811061119857fe5b9060005260206000200160009054906101000a900473ffffffffffffffffffffffffffffffffffffffff1673ffffffffffffffffffffffffffffffffffffffff1673ffffffffffffffffffffffffffffffffffffffff1681526020019081526020016000208054600181600116156101000203166002900480601f0160208091040260200160405190810160405280929190818152602001828054600181600116156101000203166002900480156112915780601f1061126657610100808354040283529160200191611291565b820191906000526020600020905b81548152906001019060200180831161127457829003601f168201915b50505050506114ac565b73ffffffffffffffffffffffffffffffffffffffff1614915081156112c35783806001019450505b8284106112d75760019450505050506112ed565b8080600101915050611128565b50600093505050505b919050565b6000806001905060008090505b6001805490508110156114a2576001818154811061131957fe5b9060005260206000200160009054906101000a900473ffffffffffffffffffffffffffffffffffffffff1673ffffffffffffffffffffffffffffffffffffffff1661147285600260006001868154811061136f57fe5b9060005260206000200160009054906101000a900473ffffffffffffffffffffffffffffffffffffffff1673ffffffffffffffffffffffffffffffffffffffff1673ffffffffffffffffffffffffffffffffffffffff1681526020019081526020016000208054600181600116156101000203166002900480601f0160208091040260200160405190810160405280929190818152602001828054600181600116156101000203166002900480156114685780601f1061143d57610100808354040283529160200191611468565b820191906000526020600020905b81548152906001019060200180831161144b57829003601f168201915b50505050506114ac565b73ffffffffffffffffffffffffffffffffffffffff1614915081611495576114a2565b80806001019150506112ff565b5080915050919050565b60008060008060418551146114c057600080fd5b6020850151925060408501519150606085015160001a905060018682858560405160008152602001604052604051808581526020018460ff1660ff1681526020018381526020018281526020019450505050506020604051602081039080840390855afa158015611535573d6000803e3d6000fd5b50505060206040510351935050505092915050565b828054600181600116156101000203166002900490600052602060002090601f016020900481019282601f1061158b57805160ff19168380011785556115b9565b828001600101855582156115b9579182015b828111156115b857825182559160200191906001019061159d565b5b5090506115c6919061164a565b5090565b828054600181600116156101000203166002900490600052602060002090601f016020900481019282601f1061160b57805160ff1916838001178555611639565b82800160010185558215611639579182015b8281111561163857825182559160200191906001019061161d565b5b509050611646919061164a565b5090565b61166c91905b80821115611668576000816000905550600101611650565b5090565b9056fea26469706673582212201f3207175627ab6462ea6fd4a0a3ca10b77dfad016f27c3542bcc1ac75511b7764736f6c63430006020033",
  "source": "pragma solidity ^0.6.2;\r\n\r\ncontract multiSigWallet{\r\n\r\n // Types of consensus: 1. Atleast one  2. Majority  3. All  \r\n\r\n  uint constant maxOwners = 3;\r\n\r\n  uint consensusType= 1;  \r\n  \r\n  address[] owners;\r\n  mapping(address=>bytes) op_signs;\r\n  event Received(address src, uint amount);\r\n  event Sent(address dst, uint amount);\r\n  event NewOwner(address owner);\r\n  \r\n  constructor(uint _consensusType) public {\r\n    require(1<= _consensusType && _consensusType <=3);\r\n    owners.push(msg.sender);\r\n    consensusType = _consensusType;\r\n  }\r\n  \r\n\r\n function addOwner(address _owner) public _isOwner _noDuplicate(_owner){\r\n  require(owners.length < maxOwners);\r\n  owners.push(_owner);\r\n  emit NewOwner(_owner);\r\n }\r\n \r\n function send(uint amount, address payable dst) public payable _approveSendEthers(amount, dst) _isOwner _isValidAddress(dst){\r\n      require(amount <= address(this).balance,\"Error: not enough balance\");\r\n      dst.transfer(amount);\r\n      clearSigns();\r\n      emit Sent(dst,amount);\r\n  }\r\n \r\n function changeConsensusType(uint _type) public _isOwner{\r\n  require(1<= _type && _type <=3 );\r\n  consensusType= _type;\r\n }\r\n \r\n function signSendEthers(uint amt, address dst) public payable _isOwner _isValidAddress(dst) {\r\n  op_signs[msg.sender]= abi.encodeWithSignature(\"send:\",dst,amt);\r\n }\r\n \r\n function recieve() external payable {\r\n    emit Received(msg.sender, msg.value);\r\n  }\r\n  \r\n  function getBalance() external view returns (uint) {\r\n   return address(this).balance;\r\n  }\r\n  \r\n   \r\n function recoverSigner(bytes32 signMsg, bytes memory signature) internal pure returns (address)\r\n  {\r\n    bytes32 r;\r\n    bytes32 s;\r\n    uint8 v;\r\n    require(signature.length == 65);\r\n     assembly {\r\n      r := mload(add(signature, 0x20))\r\n      s := mload(add(signature, 0x40))\r\n      v := byte(0, mload(add(signature, 0x60)))\r\n    }  \r\n    \r\n    return ecrecover(signMsg, v, r, s);\r\n  }\r\n  \r\n \r\n    \r\n function consensus1(bytes32 data) internal view returns(bool){\r\n  uint counter = 0;\r\n  bool approved;\r\n  for(uint i=0; i< owners.length; i++){\r\n   approved= recoverSigner(data,op_signs[owners[i]]) == owners[i];\r\n    if(approved){\r\n    counter ++;\r\n    }\r\n    \r\n    if(counter >=1)\r\n    {\r\n      return true;\r\n    }\r\n    \r\n  }\r\n \r\n  return false; \r\n  }\r\n  \r\n    \r\n function consensus2(bytes32 data) internal view returns(bool){\r\n  uint counter = 0;\r\n  uint midWay= (owners.length /2);\r\n  bool approved= true;\r\n  for(uint i=0; i< owners.length; i++){\r\n    approved= recoverSigner(data,op_signs[owners[i]]) == owners[i];\r\n    if(approved)\r\n    {\r\n      counter++;\r\n    }\r\n    if(counter >= midWay){\r\n       return true;\r\n    }\r\n     \r\n  }\r\n\r\n  return false; \r\n  }\r\n  \r\n  \r\n   function consensus3(bytes32 data) internal view returns(bool){\r\n   bool approved= true;\r\n    for(uint i=0; i< owners.length; i++){\r\n     approved= recoverSigner(data,op_signs[owners[i]]) == owners[i];\r\n    if(!approved){\r\n      break;\r\n    }\r\n  }\r\n     return approved;\r\n  }\r\n  \r\n  \r\n  \r\n  function clearSigns() public {\r\n    for(uint i=0; i< owners.length; i++){\r\n    op_signs[owners[i]]= \"\";\r\n  }\r\n  }\r\n  \r\n  \r\n  function isOwner(address _owner) external view returns (bool) {\r\n    for(uint i=0;i< owners.length;i++){\r\n    if (owners[i] == _owner)\r\n     return true;\r\n  }\r\n    return false;  \r\n  }\r\n\r\n  modifier _approveSendEthers(uint amt, address dst)  {\r\n  bytes32 data=keccak256(abi.encodePacked(dst,amt));\r\n  bool appr;\r\n  if (consensusType == 1)\r\n    appr= consensus1(data);\r\n  else if (consensusType == 2)\r\n    appr = consensus2(data);\r\n  else if (consensusType == 3)\r\n    appr = consensus3(data);\r\n    require(appr,\"Error: Transcation not approved\");\r\n   _;\r\n  }\r\n  \r\n\r\n  modifier _isOwner{\r\n  bool appr;\r\n  for(uint i=0;i< owners.length;i++){\r\n    appr = (owners[i] == msg.sender);\r\n    if(appr)\r\n    break;\r\n  }\r\n  require(appr,\"Error: not owner\");\r\n   _;\r\n  }\r\n  \r\n  modifier _isValidAddress(address _dst){\r\n    require(_dst != address(0),\"Error: Null address\");\r\n    _;\r\n  }\r\n  modifier _noDuplicate(address _owner){\r\n  bool appr;\r\n  for(uint i=0;i< owners.length;i++){\r\n    appr = ! (owners[i] == _owner);\r\n    if(appr)\r\n    break;\r\n  }\r\n  require(appr,\"Error: not owner\");\r\n   _;\r\n  }\r\n  \r\n}\r\n",
  "sourcePath": "C:\\Users\\Pratik\\Documents\\GitHub\\AdvancedSmartContract\\contracts\\multiSigWallet.sol",
  "compiler": {
    "name": "solc",
    "version": "0.6.2+commit.bacdbe57.Emscripten.clang"
  },
  "schemaVersion": "3.0.23",
  "updatedAt": "2020-03-28T20:42:32.491Z",
  "devdoc": {
    "methods": {}
  },
  "userdoc": {
    "methods": {}
  }
}