{
  "contractName": "multiSigWallet",
  "abi": [
    {
      "inputs": [
        {
          "internalType": "uint256",
          "name": "_consensusType",
          "type": "uint256"
        }
      ],
      "stateMutability": "nonpayable",
      "type": "constructor"
    },
    {
      "anonymous": false,
      "inputs": [
        {
          "indexed": false,
          "internalType": "address",
          "name": "owner",
          "type": "address"
        }
      ],
      "name": "NewOwner",
      "type": "event"
    },
    {
      "anonymous": false,
      "inputs": [
        {
          "indexed": false,
          "internalType": "address",
          "name": "src",
          "type": "address"
        },
        {
          "indexed": false,
          "internalType": "uint256",
          "name": "amount",
          "type": "uint256"
        }
      ],
      "name": "Received",
      "type": "event"
    },
    {
      "anonymous": false,
      "inputs": [
        {
          "indexed": false,
          "internalType": "address",
          "name": "dst",
          "type": "address"
        },
        {
          "indexed": false,
          "internalType": "uint256",
          "name": "amount",
          "type": "uint256"
        }
      ],
      "name": "Sent",
      "type": "event"
    },
    {
      "anonymous": false,
      "inputs": [
        {
          "indexed": false,
          "internalType": "address",
          "name": "dst",
          "type": "address"
        },
        {
          "indexed": false,
          "internalType": "uint256",
          "name": "amount",
          "type": "uint256"
        }
      ],
      "name": "Signed",
      "type": "event"
    },
    {
      "inputs": [
        {
          "internalType": "address",
          "name": "_owner",
          "type": "address"
        }
      ],
      "name": "addOwner",
      "outputs": [],
      "stateMutability": "nonpayable",
      "type": "function"
    },
    {
      "inputs": [
        {
          "internalType": "uint256",
          "name": "amount",
          "type": "uint256"
        },
        {
          "internalType": "address payable",
          "name": "dst",
          "type": "address"
        }
      ],
      "name": "send",
      "outputs": [],
      "stateMutability": "payable",
      "type": "function"
    },
    {
      "inputs": [
        {
          "internalType": "uint256",
          "name": "_type",
          "type": "uint256"
        }
      ],
      "name": "changeConsensusType",
      "outputs": [],
      "stateMutability": "nonpayable",
      "type": "function"
    },
    {
      "inputs": [
        {
          "internalType": "address",
          "name": "dst",
          "type": "address"
        },
        {
          "internalType": "uint256",
          "name": "amt",
          "type": "uint256"
        }
      ],
      "name": "signSendEthers",
      "outputs": [],
      "stateMutability": "nonpayable",
      "type": "function"
    },
    {
      "inputs": [],
      "name": "recieve",
      "outputs": [],
      "stateMutability": "payable",
      "type": "function"
    },
    {
      "inputs": [],
      "name": "getBalance",
      "outputs": [
        {
          "internalType": "uint256",
          "name": "",
          "type": "uint256"
        }
      ],
      "stateMutability": "view",
      "type": "function"
    },
    {
      "inputs": [],
      "name": "clearSigns",
      "outputs": [],
      "stateMutability": "nonpayable",
      "type": "function"
    },
    {
      "inputs": [
        {
          "internalType": "address",
          "name": "_owner",
          "type": "address"
        }
      ],
      "name": "isOwner",
      "outputs": [
        {
          "internalType": "bool",
          "name": "",
          "type": "bool"
        }
      ],
      "stateMutability": "view",
      "type": "function"
    },
    {
      "inputs": [],
      "name": "getConsensus",
      "outputs": [
        {
          "internalType": "uint256",
          "name": "",
          "type": "uint256"
        }
      ],
      "stateMutability": "view",
      "type": "function"
    }
  ],
  "bytecode": "0x6080604052600160005534801561001557600080fd5b5060405161183a38038061183a8339818101604052602081101561003857600080fd5b81019080805190602001909291905050508060011115801561005b575060038111155b61006457600080fd5b6001339080600181540180825580915050600190039060005260206000200160009091909190916101000a81548173ffffffffffffffffffffffffffffffffffffffff021916908373ffffffffffffffffffffffffffffffffffffffff160217905550806000819055505061175c806100de6000396000f3fe6080604052600436106100865760003560e01c80637065cb48116100595780637065cb4814610185578063785d04f5146101d6578063a9e10bf214610224578063c4cfae391461022e578063c4dda7b01461024557610086565b806312065fe01461008b578063179e740b146100b65780631cc28634146100e15780632f54bf6e1461011c575b600080fd5b34801561009757600080fd5b506100a06102a0565b6040518082815260200191505060405180910390f35b3480156100c257600080fd5b506100cb6102a8565b6040518082815260200191505060405180910390f35b3480156100ed57600080fd5b5061011a6004803603602081101561010457600080fd5b81019080803590602001909291905050506102b1565b005b34801561012857600080fd5b5061016b6004803603602081101561013f57600080fd5b81019080803573ffffffffffffffffffffffffffffffffffffffff1690602001909291905050506103e0565b604051808215151515815260200191505060405180910390f35b34801561019157600080fd5b506101d4600480360360208110156101a857600080fd5b81019080803573ffffffffffffffffffffffffffffffffffffffff169060200190929190505050610482565b005b610222600480360360408110156101ec57600080fd5b8101908080359060200190929190803573ffffffffffffffffffffffffffffffffffffffff169060200190929190505050610774565b005b61022c610b83565b005b34801561023a57600080fd5b50610243610bf0565b005b34801561025157600080fd5b5061029e6004803603604081101561026857600080fd5b81019080803573ffffffffffffffffffffffffffffffffffffffff16906020019092919080359060200190929190505050610cad565b005b600047905090565b60008054905090565b600080600090505b600180549050811015610346573373ffffffffffffffffffffffffffffffffffffffff16600182815481106102ea57fe5b9060005260206000200160009054906101000a900473ffffffffffffffffffffffffffffffffffffffff1673ffffffffffffffffffffffffffffffffffffffff16149150811561033957610346565b80806001019150506102b9565b50806103ba576040517f08c379a00000000000000000000000000000000000000000000000000000000081526004018080602001828103825260108152602001807f4572726f723a206e6f74206f776e65720000000000000000000000000000000081525060200191505060405180910390fd5b816001111580156103cc575060038211155b6103d557600080fd5b816000819055505050565b600080600090505b600180549050811015610477578273ffffffffffffffffffffffffffffffffffffffff166001828154811061041957fe5b9060005260206000200160009054906101000a900473ffffffffffffffffffffffffffffffffffffffff1673ffffffffffffffffffffffffffffffffffffffff16141561046a57600191505061047d565b80806001019150506103e8565b50600090505b919050565b600080600090505b600180549050811015610517573373ffffffffffffffffffffffffffffffffffffffff16600182815481106104bb57fe5b9060005260206000200160009054906101000a900473ffffffffffffffffffffffffffffffffffffffff1673ffffffffffffffffffffffffffffffffffffffff16149150811561050a57610517565b808060010191505061048a565b508061058b576040517f08c379a00000000000000000000000000000000000000000000000000000000081526004018080602001828103825260108152602001807f4572726f723a206e6f74206f776e65720000000000000000000000000000000081525060200191505060405180910390fd5b81600080600090505b600180549050811015610622578273ffffffffffffffffffffffffffffffffffffffff16600182815481106105c557fe5b9060005260206000200160009054906101000a900473ffffffffffffffffffffffffffffffffffffffff1673ffffffffffffffffffffffffffffffffffffffff1614159150811561061557610622565b8080600101915050610594565b5080610696576040517f08c379a00000000000000000000000000000000000000000000000000000000081526004018080602001828103825260108152602001807f4572726f723a206e6f74206f776e65720000000000000000000000000000000081525060200191505060405180910390fd5b6003600180549050106106a857600080fd5b6001849080600181540180825580915050600190039060005260206000200160009091909190916101000a81548173ffffffffffffffffffffffffffffffffffffffff021916908373ffffffffffffffffffffffffffffffffffffffff1602179055507f3edd90e7770f06fafde38004653b33870066c33bfc923ff6102acd601f85dfbc84604051808273ffffffffffffffffffffffffffffffffffffffff1673ffffffffffffffffffffffffffffffffffffffff16815260200191505060405180910390a150505050565b818160008183604051602001808373ffffffffffffffffffffffffffffffffffffffff1673ffffffffffffffffffffffffffffffffffffffff1660601b8152601401828152602001925050506040516020818303038152906040528051906020012090506000600160005414156107f5576107ee82610fe0565b9050610829565b6002600054141561081057610809826111b8565b9050610828565b6003600054141561082757610824826113a9565b90505b5b5b8061089c576040517f08c379a000000000000000000000000000000000000000000000000000000000815260040180806020018281038252601f8152602001807f4572726f723a205472616e73636174696f6e206e6f7420617070726f7665640081525060200191505060405180910390fd5b600080600090505b600180549050811015610931573373ffffffffffffffffffffffffffffffffffffffff16600182815481106108d557fe5b9060005260206000200160009054906101000a900473ffffffffffffffffffffffffffffffffffffffff1673ffffffffffffffffffffffffffffffffffffffff16149150811561092457610931565b80806001019150506108a4565b50806109a5576040517f08c379a00000000000000000000000000000000000000000000000000000000081526004018080602001828103825260108152602001807f4572726f723a206e6f74206f776e65720000000000000000000000000000000081525060200191505060405180910390fd5b85600073ffffffffffffffffffffffffffffffffffffffff168173ffffffffffffffffffffffffffffffffffffffff161415610a49576040517f08c379a00000000000000000000000000000000000000000000000000000000081526004018080602001828103825260138152602001807f4572726f723a204e756c6c20616464726573730000000000000000000000000081525060200191505060405180910390fd5b47881115610abf576040517f08c379a00000000000000000000000000000000000000000000000000000000081526004018080602001828103825260198152602001807f4572726f723a206e6f7420656e6f7567682062616c616e63650000000000000081525060200191505060405180910390fd5b8673ffffffffffffffffffffffffffffffffffffffff166108fc899081150290604051600060405180830381858888f19350505050158015610b05573d6000803e3d6000fd5b50610b0e610bf0565b7f510ffb4dcab972ae9d2007a58e13f1b0881776d23cd8f5cc32f8c5be2dbf70d28789604051808373ffffffffffffffffffffffffffffffffffffffff1673ffffffffffffffffffffffffffffffffffffffff1681526020018281526020019250505060405180910390a15050505050505050565b7f88a5966d370b9919b20f3e2c13ff65706f196a4e32cc2c12bf57088f885258743334604051808373ffffffffffffffffffffffffffffffffffffffff1673ffffffffffffffffffffffffffffffffffffffff1681526020018281526020019250505060405180910390a1565b60008090505b600180549050811015610caa57604051806020016040528060008152506002600060018481548110610c2457fe5b9060005260206000200160009054906101000a900473ffffffffffffffffffffffffffffffffffffffff1673ffffffffffffffffffffffffffffffffffffffff1673ffffffffffffffffffffffffffffffffffffffff1681526020019081526020016000209080519060200190610c9c929190611601565b508080600101915050610bf6565b50565b600080600090505b600180549050811015610d42573373ffffffffffffffffffffffffffffffffffffffff1660018281548110610ce657fe5b9060005260206000200160009054906101000a900473ffffffffffffffffffffffffffffffffffffffff1673ffffffffffffffffffffffffffffffffffffffff161491508115610d3557610d42565b8080600101915050610cb5565b5080610db6576040517f08c379a00000000000000000000000000000000000000000000000000000000081526004018080602001828103825260108152602001807f4572726f723a206e6f74206f776e65720000000000000000000000000000000081525060200191505060405180910390fd5b82600073ffffffffffffffffffffffffffffffffffffffff168173ffffffffffffffffffffffffffffffffffffffff161415610e5a576040517f08c379a00000000000000000000000000000000000000000000000000000000081526004018080602001828103825260138152602001807f4572726f723a204e756c6c20616464726573730000000000000000000000000081525060200191505060405180910390fd5b8383604051602401808373ffffffffffffffffffffffffffffffffffffffff1673ffffffffffffffffffffffffffffffffffffffff168152602001828152602001925050506040516020818303038152906040527fc34dd323000000000000000000000000000000000000000000000000000000007bffffffffffffffffffffffffffffffffffffffffffffffffffffffff19166020820180517bffffffffffffffffffffffffffffffffffffffffffffffffffffffff8381831617835250505050600260003373ffffffffffffffffffffffffffffffffffffffff1673ffffffffffffffffffffffffffffffffffffffff1681526020019081526020016000209080519060200190610f6e929190611681565b507ff4b7ab5b8fc49d6d35d323cae6a96e1441b461f862dfc5aff92e806e2839b5b08484604051808373ffffffffffffffffffffffffffffffffffffffff1673ffffffffffffffffffffffffffffffffffffffff1681526020018281526020019250505060405180910390a150505050565b60008060009050600080600090505b6001805490508110156111ab576001818154811061100957fe5b9060005260206000200160009054906101000a900473ffffffffffffffffffffffffffffffffffffffff1673ffffffffffffffffffffffffffffffffffffffff1661116286600260006001868154811061105f57fe5b9060005260206000200160009054906101000a900473ffffffffffffffffffffffffffffffffffffffff1673ffffffffffffffffffffffffffffffffffffffff1673ffffffffffffffffffffffffffffffffffffffff1681526020019081526020016000208054600181600116156101000203166002900480601f0160208091040260200160405190810160405280929190818152602001828054600181600116156101000203166002900480156111585780601f1061112d57610100808354040283529160200191611158565b820191906000526020600020905b81548152906001019060200180831161113b57829003601f168201915b5050505050611563565b73ffffffffffffffffffffffffffffffffffffffff16149150811561118a5782806001019350505b6001831061119e57600193505050506111b3565b8080600101915050610fef565b506000925050505b919050565b6000806000905060006002600180549050816111d057fe5b04905060006001905060008090505b60018054905081101561139b57600181815481106111f957fe5b9060005260206000200160009054906101000a900473ffffffffffffffffffffffffffffffffffffffff1673ffffffffffffffffffffffffffffffffffffffff1661135287600260006001868154811061124f57fe5b9060005260206000200160009054906101000a900473ffffffffffffffffffffffffffffffffffffffff1673ffffffffffffffffffffffffffffffffffffffff1673ffffffffffffffffffffffffffffffffffffffff1681526020019081526020016000208054600181600116156101000203166002900480601f0160208091040260200160405190810160405280929190818152602001828054600181600116156101000203166002900480156113485780601f1061131d57610100808354040283529160200191611348565b820191906000526020600020905b81548152906001019060200180831161132b57829003601f168201915b5050505050611563565b73ffffffffffffffffffffffffffffffffffffffff16149150811561137a5783806001019450505b82841061138e5760019450505050506113a4565b80806001019150506111df565b50600093505050505b919050565b6000806001905060008090505b60018054905081101561155957600181815481106113d057fe5b9060005260206000200160009054906101000a900473ffffffffffffffffffffffffffffffffffffffff1673ffffffffffffffffffffffffffffffffffffffff1661152985600260006001868154811061142657fe5b9060005260206000200160009054906101000a900473ffffffffffffffffffffffffffffffffffffffff1673ffffffffffffffffffffffffffffffffffffffff1673ffffffffffffffffffffffffffffffffffffffff1681526020019081526020016000208054600181600116156101000203166002900480601f01602080910402602001604051908101604052809291908181526020018280546001816001161561010002031660029004801561151f5780601f106114f45761010080835404028352916020019161151f565b820191906000526020600020905b81548152906001019060200180831161150257829003601f168201915b5050505050611563565b73ffffffffffffffffffffffffffffffffffffffff161491508161154c57611559565b80806001019150506113b6565b5080915050919050565b600080600080604185511461157757600080fd5b6020850151925060408501519150606085015160001a905060018682858560405160008152602001604052604051808581526020018460ff1660ff1681526020018381526020018281526020019450505050506020604051602081039080840390855afa1580156115ec573d6000803e3d6000fd5b50505060206040510351935050505092915050565b828054600181600116156101000203166002900490600052602060002090601f016020900481019282601f1061164257805160ff1916838001178555611670565b82800160010185558215611670579182015b8281111561166f578251825591602001919060010190611654565b5b50905061167d9190611701565b5090565b828054600181600116156101000203166002900490600052602060002090601f016020900481019282601f106116c257805160ff19168380011785556116f0565b828001600101855582156116f0579182015b828111156116ef5782518255916020019190600101906116d4565b5b5090506116fd9190611701565b5090565b61172391905b8082111561171f576000816000905550600101611707565b5090565b9056fea2646970667358221220c4cf8530e55f2f02d2db86dc4c855b68f0e5d67316854e8ef3fabfc39f84561664736f6c63430006020033",
  "source": "pragma solidity ^0.6.2;\r\n\r\ncontract multiSigWallet{\r\n\r\n // Types of consensus: 1. Atleast one  2. Majority  3. All  \r\n\r\n  uint constant maxOwners = 3;\r\n\r\n  uint consensusType= 1;  \r\n  \r\n  address[] owners;\r\n  mapping(address=>bytes) op_signs;\r\n  event Received(address src, uint amount);\r\n  event Sent(address dst, uint amount);\r\n  event Signed(address dst, uint amount);\r\n  event NewOwner(address owner);\r\n  \r\n  constructor(uint _consensusType) public {\r\n    require(1<= _consensusType && _consensusType <=3);\r\n    owners.push(msg.sender);\r\n    consensusType = _consensusType;\r\n  }\r\n  \r\n\r\n function addOwner(address _owner) public _isOwner _noDuplicate(_owner){\r\n  require(owners.length < maxOwners);\r\n  owners.push(_owner);\r\n  emit NewOwner(_owner);\r\n }\r\n \r\n function send(uint amount, address payable dst) public payable _approveSendEthers(amount, dst) _isOwner _isValidAddress(dst){\r\n      require(amount <= address(this).balance,\"Error: not enough balance\");\r\n      dst.transfer(amount);\r\n      clearSigns();\r\n      emit Sent(dst,amount);\r\n  }\r\n \r\n function changeConsensusType(uint _type) public _isOwner{\r\n  require(1<= _type && _type <=3 );\r\n  consensusType= _type;\r\n }\r\n \r\n function signSendEthers(address dst, uint amt) public  _isOwner _isValidAddress(dst) {\r\n  op_signs[msg.sender]= abi.encodeWithSignature(\"send:\",dst,amt);\r\n  emit Signed(dst,amt);\r\n }\r\n \r\n function recieve() external payable {\r\n    emit Received(msg.sender, msg.value);\r\n  }\r\n  \r\n  function getBalance() external view returns (uint) {\r\n   return address(this).balance;\r\n  }\r\n  \r\n   \r\n function recoverSigner(bytes32 signMsg, bytes memory signature) internal pure returns (address)\r\n  {\r\n    bytes32 r;\r\n    bytes32 s;\r\n    uint8 v;\r\n    require(signature.length == 65);\r\n     assembly {\r\n      r := mload(add(signature, 0x20))\r\n      s := mload(add(signature, 0x40))\r\n      v := byte(0, mload(add(signature, 0x60)))\r\n    }  \r\n    \r\n    return ecrecover(signMsg, v, r, s);\r\n  }\r\n  \r\n \r\n    \r\n function consensus1(bytes32 data) internal view returns(bool){\r\n  uint counter = 0;\r\n  bool approved;\r\n  for(uint i=0; i< owners.length; i++){\r\n   approved= recoverSigner(data,op_signs[owners[i]]) == owners[i];\r\n    if(approved){\r\n    counter ++;\r\n    }\r\n    \r\n    if(counter >=1)\r\n    {\r\n      return true;\r\n    }\r\n    \r\n  }\r\n \r\n  return false; \r\n  }\r\n  \r\n    \r\n function consensus2(bytes32 data) internal view returns(bool){\r\n  uint counter = 0;\r\n  uint midWay= (owners.length /2);\r\n  bool approved= true;\r\n  for(uint i=0; i< owners.length; i++){\r\n    approved= recoverSigner(data,op_signs[owners[i]]) == owners[i];\r\n    if(approved)\r\n    {\r\n      counter++;\r\n    }\r\n    if(counter >= midWay){\r\n       return true;\r\n    }\r\n     \r\n  }\r\n\r\n  return false; \r\n  }\r\n  \r\n  \r\n   function consensus3(bytes32 data) internal view returns(bool){\r\n   bool approved= true;\r\n    for(uint i=0; i< owners.length; i++){\r\n     approved= recoverSigner(data,op_signs[owners[i]]) == owners[i];\r\n    if(!approved){\r\n      break;\r\n    }\r\n  }\r\n     return approved;\r\n  }\r\n  \r\n  \r\n  \r\n  function clearSigns() public {\r\n    for(uint i=0; i< owners.length; i++){\r\n    op_signs[owners[i]]= \"\";\r\n  }\r\n  }\r\n  \r\n  \r\n  function isOwner(address _owner) external view returns (bool) {\r\n    for(uint i=0;i< owners.length;i++){\r\n    if (owners[i] == _owner)\r\n     return true;\r\n  }\r\n    return false;  \r\n  }\r\n\r\n  function getConsensus() external view returns (uint) {\r\n    return consensusType;\r\n  }\r\n\r\n  modifier _approveSendEthers(uint amt, address dst)  {\r\n  bytes32 data=keccak256(abi.encodePacked(dst,amt));\r\n  bool appr;\r\n  if (consensusType == 1)\r\n    appr= consensus1(data);\r\n  else if (consensusType == 2)\r\n    appr = consensus2(data);\r\n  else if (consensusType == 3)\r\n    appr = consensus3(data);\r\n    require(appr,\"Error: Transcation not approved\");\r\n   _;\r\n  }\r\n  \r\n\r\n  modifier _isOwner{\r\n  bool appr;\r\n  for(uint i=0;i< owners.length;i++){\r\n    appr = (owners[i] == msg.sender);\r\n    if(appr)\r\n    break;\r\n  }\r\n  require(appr,\"Error: not owner\");\r\n   _;\r\n  }\r\n  \r\n  modifier _isValidAddress(address _dst){\r\n    require(_dst != address(0),\"Error: Null address\");\r\n    _;\r\n  }\r\n  modifier _noDuplicate(address _owner){\r\n  bool appr;\r\n  for(uint i=0;i< owners.length;i++){\r\n    appr = ! (owners[i] == _owner);\r\n    if(appr)\r\n    break;\r\n  }\r\n  require(appr,\"Error: not owner\");\r\n   _;\r\n  }\r\n  \r\n}\r\n",
  "sourcePath": "C:\\Users\\Pratik\\Documents\\GitHub\\AdvancedSmartContract\\contracts\\multiSigWallet.sol",
  "compiler": {
    "name": "solc",
    "version": "0.6.2+commit.bacdbe57.Emscripten.clang"
  },
  "schemaVersion": "3.0.23",
  "updatedAt": "2020-03-28T20:57:30.731Z",
  "devdoc": {
    "methods": {}
  },
  "userdoc": {
    "methods": {}
  }
}